{
    "abi": [
        {
            "type": "constructor",
            "inputs": [],
            "stateMutability": "nonpayable"
        },
        {
            "type": "function",
            "name": "UPGRADE_INTERFACE_VERSION",
            "inputs": [],
            "outputs": [
                {
                    "name": "",
                    "type": "string",
                    "internalType": "string"
                }
            ],
            "stateMutability": "view"
        },
        {
            "type": "function",
            "name": "createJob",
            "inputs": [
                {
                    "name": "jobName",
                    "type": "string",
                    "internalType": "string"
                },
                {
                    "name": "jobType",
                    "type": "uint8",
                    "internalType": "uint8"
                },
                {
                    "name": "timeFrame",
                    "type": "uint256",
                    "internalType": "uint256"
                },
                {
                    "name": "targetContract",
                    "type": "address",
                    "internalType": "address"
                },
                {
                    "name": "data",
                    "type": "bytes",
                    "internalType": "bytes"
                }
            ],
            "outputs": [
                {
                    "name": "jobId",
                    "type": "uint256",
                    "internalType": "uint256"
                }
            ],
            "stateMutability": "nonpayable"
        },
        {
            "type": "function",
            "name": "deleteJob",
            "inputs": [
                {
                    "name": "jobId",
                    "type": "uint256",
                    "internalType": "uint256"
                }
            ],
            "outputs": [],
            "stateMutability": "nonpayable"
        },
        {
            "type": "function",
            "name": "getJob",
            "inputs": [
                {
                    "name": "jobId",
                    "type": "uint256",
                    "internalType": "uint256"
                }
            ],
            "outputs": [
                {
                    "name": "job",
                    "type": "tuple",
                    "internalType": "struct JobRegistry.Job",
                    "components": [
                        {
                            "name": "jobId",
                            "type": "uint256",
                            "internalType": "uint256"
                        },
                        {
                            "name": "jobOwner",
                            "type": "address",
                            "internalType": "address"
                        },
                        {
                            "name": "jobHash",
                            "type": "bytes32",
                            "internalType": "bytes32"
                        },
                        {
                            "name": "lastUpdatedAt",
                            "type": "uint256",
                            "internalType": "uint256"
                        },
                        {
                            "name": "isActive",
                            "type": "bool",
                            "internalType": "bool"
                        }
                    ]
                }
            ],
            "stateMutability": "view"
        },
        {
            "type": "function",
            "name": "getJobOwner",
            "inputs": [
                {
                    "name": "jobId",
                    "type": "uint256",
                    "internalType": "uint256"
                }
            ],
            "outputs": [
                {
                    "name": "",
                    "type": "address",
                    "internalType": "address"
                }
            ],
            "stateMutability": "view"
        },
        {
            "type": "function",
            "name": "getTotalJobsCount",
            "inputs": [],
            "outputs": [
                {
                    "name": "count",
                    "type": "uint256",
                    "internalType": "uint256"
                }
            ],
            "stateMutability": "view"
        },
        {
            "type": "function",
            "name": "getUserActiveJobIds",
            "inputs": [
                {
                    "name": "user",
                    "type": "address",
                    "internalType": "address"
                }
            ],
            "outputs": [
                {
                    "name": "activeJobIds",
                    "type": "uint256[]",
                    "internalType": "uint256[]"
                }
            ],
            "stateMutability": "view"
        },
        {
            "type": "function",
            "name": "getUserJobIds",
            "inputs": [
                {
                    "name": "user",
                    "type": "address",
                    "internalType": "address"
                }
            ],
            "outputs": [
                {
                    "name": "jobIds",
                    "type": "uint256[]",
                    "internalType": "uint256[]"
                }
            ],
            "stateMutability": "view"
        },
        {
            "type": "function",
            "name": "initialize",
            "inputs": [
                {
                    "name": "initialOwner",
                    "type": "address",
                    "internalType": "address"
                }
            ],
            "outputs": [],
            "stateMutability": "nonpayable"
        },
        {
            "type": "function",
            "name": "isJobActive",
            "inputs": [
                {
                    "name": "jobId",
                    "type": "uint256",
                    "internalType": "uint256"
                }
            ],
            "outputs": [
                {
                    "name": "isActive",
                    "type": "bool",
                    "internalType": "bool"
                }
            ],
            "stateMutability": "view"
        },
        {
            "type": "function",
            "name": "owner",
            "inputs": [],
            "outputs": [
                {
                    "name": "",
                    "type": "address",
                    "internalType": "address"
                }
            ],
            "stateMutability": "view"
        },
        {
            "type": "function",
            "name": "proxiableUUID",
            "inputs": [],
            "outputs": [
                {
                    "name": "",
                    "type": "bytes32",
                    "internalType": "bytes32"
                }
            ],
            "stateMutability": "view"
        },
        {
            "type": "function",
            "name": "renounceOwnership",
            "inputs": [],
            "outputs": [],
            "stateMutability": "nonpayable"
        },
        {
            "type": "function",
            "name": "transferOwnership",
            "inputs": [
                {
                    "name": "newOwner",
                    "type": "address",
                    "internalType": "address"
                }
            ],
            "outputs": [],
            "stateMutability": "nonpayable"
        },
        {
            "type": "function",
            "name": "updateJob",
            "inputs": [
                {
                    "name": "jobId",
                    "type": "uint256",
                    "internalType": "uint256"
                },
                {
                    "name": "oldJobName",
                    "type": "string",
                    "internalType": "string"
                },
                {
                    "name": "jobType",
                    "type": "uint8",
                    "internalType": "uint8"
                },
                {
                    "name": "oldTimeFrame",
                    "type": "uint256",
                    "internalType": "uint256"
                },
                {
                    "name": "targetContract",
                    "type": "address",
                    "internalType": "address"
                },
                {
                    "name": "oldData",
                    "type": "bytes",
                    "internalType": "bytes"
                },
                {
                    "name": "newJobName",
                    "type": "string",
                    "internalType": "string"
                },
                {
                    "name": "newTimeFrame",
                    "type": "uint256",
                    "internalType": "uint256"
                },
                {
                    "name": "newData",
                    "type": "bytes",
                    "internalType": "bytes"
                }
            ],
            "outputs": [],
            "stateMutability": "nonpayable"
        },
        {
            "type": "function",
            "name": "upgradeToAndCall",
            "inputs": [
                {
                    "name": "newImplementation",
                    "type": "address",
                    "internalType": "address"
                },
                {
                    "name": "data",
                    "type": "bytes",
                    "internalType": "bytes"
                }
            ],
            "outputs": [],
            "stateMutability": "payable"
        },
        {
            "type": "event",
            "name": "Initialized",
            "inputs": [
                {
                    "name": "version",
                    "type": "uint64",
                    "indexed": false,
                    "internalType": "uint64"
                }
            ],
            "anonymous": false
        },
        {
            "type": "event",
            "name": "JobCreated",
            "inputs": [
                {
                    "name": "jobId",
                    "type": "uint256",
                    "indexed": true,
                    "internalType": "uint256"
                },
                {
                    "name": "jobOwner",
                    "type": "address",
                    "indexed": true,
                    "internalType": "address"
                },
                {
                    "name": "jobHash",
                    "type": "bytes32",
                    "indexed": false,
                    "internalType": "bytes32"
                },
                {
                    "name": "timestamp",
                    "type": "uint256",
                    "indexed": false,
                    "internalType": "uint256"
                }
            ],
            "anonymous": false
        },
        {
            "type": "event",
            "name": "JobDeleted",
            "inputs": [
                {
                    "name": "jobId",
                    "type": "uint256",
                    "indexed": true,
                    "internalType": "uint256"
                },
                {
                    "name": "jobOwner",
                    "type": "address",
                    "indexed": true,
                    "internalType": "address"
                },
                {
                    "name": "timestamp",
                    "type": "uint256",
                    "indexed": false,
                    "internalType": "uint256"
                }
            ],
            "anonymous": false
        },
        {
            "type": "event",
            "name": "JobUpdated",
            "inputs": [
                {
                    "name": "jobId",
                    "type": "uint256",
                    "indexed": true,
                    "internalType": "uint256"
                },
                {
                    "name": "jobOwner",
                    "type": "address",
                    "indexed": true,
                    "internalType": "address"
                },
                {
                    "name": "newJobHash",
                    "type": "bytes32",
                    "indexed": false,
                    "internalType": "bytes32"
                },
                {
                    "name": "timestamp",
                    "type": "uint256",
                    "indexed": false,
                    "internalType": "uint256"
                }
            ],
            "anonymous": false
        },
        {
            "type": "event",
            "name": "OwnershipTransferred",
            "inputs": [
                {
                    "name": "previousOwner",
                    "type": "address",
                    "indexed": true,
                    "internalType": "address"
                },
                {
                    "name": "newOwner",
                    "type": "address",
                    "indexed": true,
                    "internalType": "address"
                }
            ],
            "anonymous": false
        },
        {
            "type": "event",
            "name": "Upgraded",
            "inputs": [
                {
                    "name": "implementation",
                    "type": "address",
                    "indexed": true,
                    "internalType": "address"
                }
            ],
            "anonymous": false
        },
        {
            "type": "error",
            "name": "AddressEmptyCode",
            "inputs": [
                {
                    "name": "target",
                    "type": "address",
                    "internalType": "address"
                }
            ]
        },
        {
            "type": "error",
            "name": "ERC1967InvalidImplementation",
            "inputs": [
                {
                    "name": "implementation",
                    "type": "address",
                    "internalType": "address"
                }
            ]
        },
        {
            "type": "error",
            "name": "ERC1967NonPayable",
            "inputs": []
        },
        {
            "type": "error",
            "name": "EmptyJobName",
            "inputs": []
        },
        {
            "type": "error",
            "name": "FailedCall",
            "inputs": []
        },
        {
            "type": "error",
            "name": "InvalidInitialization",
            "inputs": []
        },
        {
            "type": "error",
            "name": "InvalidJobData",
            "inputs": []
        },
        {
            "type": "error",
            "name": "InvalidJobParameters",
            "inputs": []
        },
        {
            "type": "error",
            "name": "InvalidTargetContract",
            "inputs": []
        },
        {
            "type": "error",
            "name": "JobAlreadyInactive",
            "inputs": [
                {
                    "name": "jobId",
                    "type": "uint256",
                    "internalType": "uint256"
                }
            ]
        },
        {
            "type": "error",
            "name": "JobNotFound",
            "inputs": [
                {
                    "name": "jobId",
                    "type": "uint256",
                    "internalType": "uint256"
                }
            ]
        },
        {
            "type": "error",
            "name": "MissingIpfsHash",
            "inputs": []
        },
        {
            "type": "error",
            "name": "MissingTimeInterval",
            "inputs": []
        },
        {
            "type": "error",
            "name": "NotInitializing",
            "inputs": []
        },
        {
            "type": "error",
            "name": "OwnableInvalidOwner",
            "inputs": [
                {
                    "name": "owner",
                    "type": "address",
                    "internalType": "address"
                }
            ]
        },
        {
            "type": "error",
            "name": "OwnableUnauthorizedAccount",
            "inputs": [
                {
                    "name": "account",
                    "type": "address",
                    "internalType": "address"
                }
            ]
        },
        {
            "type": "error",
            "name": "UUPSUnauthorizedCallContext",
            "inputs": []
        },
        {
            "type": "error",
            "name": "UUPSUnsupportedProxiableUUID",
            "inputs": [
                {
                    "name": "slot",
                    "type": "bytes32",
                    "internalType": "bytes32"
                }
            ]
        },
        {
            "type": "error",
            "name": "UnauthorizedJobAccess",
            "inputs": [
                {
                    "name": "jobId",
                    "type": "uint256",
                    "internalType": "uint256"
                },
                {
                    "name": "caller",
                    "type": "address",
                    "internalType": "address"
                }
            ]
        }
    ],
    "bytecode": {
        "object": "0x60a080604052346100c257306080525f51602061148f5f395f51905f525460ff8160401c166100b3576002600160401b03196001600160401b03821601610060575b6040516113c890816100c7823960805181818161029201526103bc0152f35b6001600160401b0319166001600160401b039081175f51602061148f5f395f51905f525581527fc7f505b2f371ae2175ee4913f4499e1f2633a7b5936321eed1cdaeb6115181d290602090a15f80610041565b63f92ee8a960e01b5f5260045ffd5b5f80fdfe60806040526004361015610011575f80fd5b5f3560e01c8063147f5511146101145780634f1ef2861461010f57806352d1902d1461010a57806353bc234f146101055780635523d8dc146101005780636358bb8c146100fb578063715018a6146100f6578063893de3c5146100f15780638da5cb5b146100ec57806391461d0a146100e7578063a87a8732146100e2578063ad3cb1cc146100dd578063bf22c457146100d8578063c4d66de8146100d3578063f2fde38b146100ce5763ff7b49a0146100c9575f80fd5b610c67565b610c3e565b610ad7565b610a00565b6109b9565b610979565b6108c3565b61088f565b6106b9565b610632565b610560565b6104e2565b610401565b6103aa565b610254565b34610149576020366003190112610149576004355f526001602052602060018060a01b03600160405f20015416604051908152f35b5f80fd5b600435906001600160a01b038216820361014957565b606435906001600160a01b038216820361014957565b608435906001600160a01b038216820361014957565b634e487b7160e01b5f52604160045260245ffd5b60a081019081106001600160401b038211176101be57604052565b61018f565b90601f801991011681019081106001600160401b038211176101be57604052565b604051906101f360a0836101c3565b565b6001600160401b0381116101be57601f01601f191660200190565b81601f820112156101495760208135910161022a826101f5565b9261023860405194856101c3565b8284528282011161014957815f92602092838601378301015290565b60403660031901126101495761026861014d565b6024356001600160401b03811161014957610287903690600401610210565b906001600160a01b037f000000000000000000000000000000000000000000000000000000000000000016308114908115610388575b50610379576102ca6110e7565b6040516352d1902d60e01b8152916020836004816001600160a01b0386165afa5f9381610348575b5061031357634c9c8ce360e01b5f526001600160a01b03821660045260245ffd5b905f5160206113535f395f51905f5283036103345761033292506111c7565b005b632a87526960e21b5f52600483905260245ffd5b61036b91945060203d602011610372575b61036381836101c3565b8101906110d8565b925f6102f2565b503d610359565b63703e46dd60e11b5f5260045ffd5b5f5160206113535f395f51905f52546001600160a01b0316141590505f6102bd565b34610149575f366003190112610149577f00000000000000000000000000000000000000000000000000000000000000006001600160a01b031630036103795760206040515f5160206113535f395f51905f528152f35b3461014957602036600319011261014957600435805f52600160205260405f20906040519161042f836101a3565b8054835260018101546001600160a01b031660208401819052600282015460408501526003820154606085015260049091015460ff161515608090930192835215610497576104936104818351151590565b60405190151581529081906020820190565b0390f35b6350c83b9560e01b5f5260045260245ffd5b60206040818301928281528451809452019201905f5b8181106104cc5750505090565b82518452602093840193909201916001016104bf565b34610149576020366003190112610149576001600160a01b0361050361014d565b165f52600260205260405f206040519081602082549182815201915f5260205f20905f5b81811061054a576104938561053e818703826101c3565b604051918291826104a9565b8254845260209093019260019283019201610527565b3461014957602036600319011261014957600435610586815f52600160205260405f2090565b60018101546001600160a01b0316801561061e573303610606576004016105b56105b1825460ff1690565b1590565b6105f257805460ff191690556040514281523391907f8bc0131dae2d0cbc363614dfcf9653c32125d8fe69ea2cc1f6be9bc43019853790602090a3005b63060a06f160e01b5f52600482905260245ffd5b6316aceee960e21b5f5260048290523360245260445ffd5b6350c83b9560e01b5f52600483905260245ffd5b34610149575f3660031901126101495761064a6110e7565b5f5160206113335f395f51905f5280546001600160a01b031981169091555f906001600160a01b03167f8be0079c531659141344cd1fd0a4f28419497f9722a3daafe3b4186f6b6457e08280a3005b6024359060ff8216820361014957565b6044359060ff8216820361014957565b346101495760a0366003190112610149576004356001600160401b038111610149576106e9903690600401610210565b6106f1610699565b90604435906106fe610163565b916084356001600160401b0381116101495761071e903690600401610210565b825115610880576001600160a01b03841615610871578461076882610749610776946104939961111a565b6107535f54610db0565b96875f55604051958694602086019889610dd2565b03601f1981018352826101c3565b5190206108146107846101e4565b8381523360208201528260408201524260608201526107a66080820160019052565b6107b8845f52600160205260405f2090565b906080600491805184556001840160018060a01b036020830151166bffffffffffffffffffffffff60a01b82541617905560408101516002850155606081015160038501550151151591019060ff801983541691151516179055565b335f90815260026020526040902061082d908390610e2d565b60408051918252426020830152339183917f737fc62fbb05dd9fb7c799e68796a2d7c8324e310af7b656c0580e7b3cf8bf8a91a36040519081529081906020820190565b632ab4c28d60e11b5f5260045ffd5b630895f00360e01b5f5260045ffd5b34610149575f366003190112610149575f5160206113335f395f51905f52546040516001600160a01b039091168152602090f35b3461014957610120366003190112610149576004356024356001600160401b038111610149576108f7903690600401610210565b906109006106a9565b60643561090b610179565b60a4356001600160401b0381116101495761092a903690600401610210565b9060c4356001600160401b0381116101495761094a903690600401610210565b9260e4359461010435976001600160401b03891161014957610973610332993690600401610210565b97610e59565b34610149575f3660031901126101495760205f54604051908152f35b805180835260209291819084018484015e5f828201840152601f01601f1916010190565b34610149575f366003190112610149576104936040516109da6040826101c3565b60058152640352e302e360dc1b6020820152604051918291602083526020830190610995565b34610149576020366003190112610149576004355f6080604051610a23816101a3565b8281528260208201528260408201528260608201520152805f52600160205260405f209060405191610a54836101a3565b8054835260018101546001600160a01b031660208401819052600282015460408501526003820154606085015260049091015460ff1615156080840152156104975760408051835181526020808501516001600160a01b03169082015283820151918101919091526060808401519082015260808084015115159082015260a090f35b3461014957602036600319011261014957610af061014d565b5f5160206113735f395f51905f5254906001600160401b03610b2160ff604085901c1615936001600160401b031690565b1680159081610c36575b6001149081610c2c575b159081610c23575b50610c1457610b809082610b7760016001600160401b03195f5160206113735f395f51905f525416175f5160206113735f395f51905f5255565b610bdf57610fd3565b610b8657005b610bb060ff60401b195f5160206113735f395f51905f5254165f5160206113735f395f51905f5255565b604051600181527fc7f505b2f371ae2175ee4913f4499e1f2633a7b5936321eed1cdaeb6115181d290602090a1005b610c0f600160401b60ff60401b195f5160206113735f395f51905f525416175f5160206113735f395f51905f5255565b610fd3565b63f92ee8a960e01b5f5260045ffd5b9050155f610b3d565b303b159150610b35565b839150610b2b565b3461014957602036600319011261014957610332610c5a61014d565b610c626110e7565b61100a565b3461014957602036600319011261014957610ca4610c9f610c8661014d565b6001600160a01b03165f90815260026020526040902090565b610d68565b5f5f5b8251811015610cfa57610cd96004610cd1610cc2848761107b565b515f52600160205260405f2090565b015460ff1690565b610ce6575b600101610ca7565b90610cf2600191610db0565b919050610cde565b50610d04906110a6565b905f5f5b8251811015610d5a57610d236004610cd1610cc2848761107b565b610d30575b600101610d08565b90610d52600191610d41848661107b565b51610d4c828861107b565b52610db0565b919050610d28565b6040518061049386826104a9565b90604051918281549182825260208201905f5260205f20925f5b818110610d975750506101f3925003836101c3565b8454835260019485019487945060209093019201610d82565b5f198114610dbe5760010190565b634e487b7160e01b5f52601160045260245ffd5b9193909260ff610dee610e16979560a0865260a0860190610995565b9516602084015260408301526001600160a01b03166060820152808303608090910152610995565b90565b634e487b7160e01b5f52603260045260245ffd5b805490600160401b8210156101be5760018201808255821015610e54575f5260205f200155565b610e19565b96939792959495610e72885f52600160205260405f2090565b60018101549097906001600160a01b03168015610fbf573303610fa757610ea06105b160048a015460ff1690565b610f93578991610768610ebf9260405194859388602086019889610dd2565b519020966002860197885403610f5857845115610880576001600160a01b03811615610871578261076891610ef7610f08958561111a565b604051958694602086019889610dd2565b5190208093556003429101557f7dac5d7787afd94b2012ccf48531da941b75ac7e9cfc8b6ea0b55cb3a93dbd1360405180610f53339542908360209093929193604081019481520152565b0390a3565b60405162461bcd60e51b815260206004820152601360248201527209e9888beac8298aa8aa6be9a92a69a82a8869606b1b6044820152606490fd5b63060a06f160e01b5f52600489905260245ffd5b6316aceee960e21b5f5260048990523360245260445ffd5b6350c83b9560e01b5f5260048a905260245ffd5b6001600160a01b03811615610ffb57610ff690610fee611269565b610c62611269565b5f8055565b639e1d143d60e01b5f5260045ffd5b6001600160a01b03168015611068575f5160206113335f395f51905f5280546001600160a01b0319811683179091556001600160a01b03167f8be0079c531659141344cd1fd0a4f28419497f9722a3daafe3b4186f6b6457e05f80a3565b631e4fbdf760e01b5f525f60045260245ffd5b8051821015610e545760209160051b010190565b6001600160401b0381116101be5760051b60200190565b906110b08261108f565b6110bd60405191826101c3565b82815280926110ce601f199161108f565b0190602036910137565b90816020910312610149575190565b5f5160206113335f395f51905f52546001600160a01b0316330361110757565b63118cdaa760e01b5f523360045260245ffd5b60ff166001811480156111bd575b156111a457602082511061119557602082015115611195575b6002811490811561118a575b811561117f575b5061115c5750565b604081511061117057604001511561117057565b6334eab45360e11b5f5260045ffd5b60069150145f611154565b60048114915061114d565b638485995760e01b5f5260045ffd5b6020825110156111415763a103823560e01b5f5260045ffd5b5060028114611128565b90813b15611248575f5160206113535f395f51905f5280546001600160a01b0319166001600160a01b0384169081179091557fbc7cd75a20ee27fd9adebab32041f755214dbc6bffa90cc0225b39da2e5c2d3b5f80a28051156112305761122d91611294565b50565b50503461123957565b63b398979f60e01b5f5260045ffd5b50634c9c8ce360e01b5f9081526001600160a01b0391909116600452602490fd5b60ff5f5160206113735f395f51905f525460401c161561128557565b631afcd79f60e31b5f5260045ffd5b5f80610e1693602081519101845af43d156112d0573d916112b4836101f5565b926112c260405194856101c3565b83523d5f602085013e6112d4565b6060915b906112f857508051156112e957805190602001fd5b63d6bda27560e01b5f5260045ffd5b81511580611329575b611309575090565b639996b31560e01b5f9081526001600160a01b0391909116600452602490fd5b50803b1561130156fe9016d09d72d40fdae2fd8ceac6b6234c7706214fd39c1cd1e609a0528c199300360894a13ba1a3210667c828492db98dca3e2076cc3735a920a3ca505d382bbcf0c57e16840df040f15088dc2f81fe391c3923bec73e23a9662efc9c229c6a00a2646970667358221220a32afeed18c84a2bb283cbfc447d6ceec14daa1e20e856ba6fdd1173da69349964736f6c634300081b0033f0c57e16840df040f15088dc2f81fe391c3923bec73e23a9662efc9c229c6a00",
        "linkReferences": {}
    },
    "methodIdentifiers": {
        "UPGRADE_INTERFACE_VERSION()": "ad3cb1cc",
        "createJob(string,uint8,uint256,address,bytes)": "893de3c5",
        "deleteJob(uint256)": "6358bb8c",
        "getJob(uint256)": "bf22c457",
        "getJobOwner(uint256)": "147f5511",
        "getTotalJobsCount()": "a87a8732",
        "getUserActiveJobIds(address)": "ff7b49a0",
        "getUserJobIds(address)": "5523d8dc",
        "initialize(address)": "c4d66de8",
        "isJobActive(uint256)": "53bc234f",
        "owner()": "8da5cb5b",
        "proxiableUUID()": "52d1902d",
        "renounceOwnership()": "715018a6",
        "transferOwnership(address)": "f2fde38b",
        "updateJob(uint256,string,uint8,uint256,address,bytes,string,uint256,bytes)": "91461d0a",
        "upgradeToAndCall(address,bytes)": "4f1ef286"
    },
    "id": 81
}